{
  "address": "0xa2135172754b5C16bD1C1842bd7fd5c555b017dc",
  "abi": [
    {
      "inputs": [],
      "stateMutability": "nonpayable",
      "type": "constructor"
    },
    {
      "anonymous": false,
      "inputs": [
        {
          "indexed": true,
          "internalType": "address",
          "name": "owner",
          "type": "address"
        },
        {
          "indexed": true,
          "internalType": "address",
          "name": "spender",
          "type": "address"
        },
        {
          "indexed": false,
          "internalType": "uint256",
          "name": "value",
          "type": "uint256"
        }
      ],
      "name": "Approval",
      "type": "event"
    },
    {
      "anonymous": false,
      "inputs": [
        {
          "indexed": false,
          "internalType": "uint256",
          "name": "minTokensBeforeSwap",
          "type": "uint256"
        }
      ],
      "name": "MinTokensBeforeSwapUpdated",
      "type": "event"
    },
    {
      "anonymous": false,
      "inputs": [
        {
          "indexed": true,
          "internalType": "address",
          "name": "previousOwner",
          "type": "address"
        },
        {
          "indexed": true,
          "internalType": "address",
          "name": "newOwner",
          "type": "address"
        }
      ],
      "name": "OwnershipTransferred",
      "type": "event"
    },
    {
      "anonymous": false,
      "inputs": [
        {
          "indexed": false,
          "internalType": "uint256",
          "name": "tokensSwapped",
          "type": "uint256"
        },
        {
          "indexed": false,
          "internalType": "uint256",
          "name": "ethReceived",
          "type": "uint256"
        },
        {
          "indexed": false,
          "internalType": "uint256",
          "name": "tokensIntoLiqudity",
          "type": "uint256"
        }
      ],
      "name": "SwapAndLiquify",
      "type": "event"
    },
    {
      "anonymous": false,
      "inputs": [
        {
          "indexed": false,
          "internalType": "bool",
          "name": "enabled",
          "type": "bool"
        }
      ],
      "name": "SwapAndLiquifyEnabledUpdated",
      "type": "event"
    },
    {
      "anonymous": false,
      "inputs": [
        {
          "indexed": true,
          "internalType": "address",
          "name": "from",
          "type": "address"
        },
        {
          "indexed": true,
          "internalType": "address",
          "name": "to",
          "type": "address"
        },
        {
          "indexed": false,
          "internalType": "uint256",
          "name": "value",
          "type": "uint256"
        }
      ],
      "name": "Transfer",
      "type": "event"
    },
    {
      "inputs": [],
      "name": "ElkPair",
      "outputs": [
        {
          "internalType": "address",
          "name": "",
          "type": "address"
        }
      ],
      "stateMutability": "view",
      "type": "function"
    },
    {
      "inputs": [],
      "name": "ElkRouter",
      "outputs": [
        {
          "internalType": "contract IElkRouter",
          "name": "",
          "type": "address"
        }
      ],
      "stateMutability": "view",
      "type": "function"
    },
    {
      "inputs": [],
      "name": "_liquidityFee",
      "outputs": [
        {
          "internalType": "uint256",
          "name": "",
          "type": "uint256"
        }
      ],
      "stateMutability": "view",
      "type": "function"
    },
    {
      "inputs": [],
      "name": "_maxTxAmount",
      "outputs": [
        {
          "internalType": "uint256",
          "name": "",
          "type": "uint256"
        }
      ],
      "stateMutability": "view",
      "type": "function"
    },
    {
      "inputs": [],
      "name": "_taxFee",
      "outputs": [
        {
          "internalType": "uint256",
          "name": "",
          "type": "uint256"
        }
      ],
      "stateMutability": "view",
      "type": "function"
    },
    {
      "inputs": [
        {
          "internalType": "address",
          "name": "owner",
          "type": "address"
        },
        {
          "internalType": "address",
          "name": "spender",
          "type": "address"
        }
      ],
      "name": "allowance",
      "outputs": [
        {
          "internalType": "uint256",
          "name": "",
          "type": "uint256"
        }
      ],
      "stateMutability": "view",
      "type": "function"
    },
    {
      "inputs": [
        {
          "internalType": "address",
          "name": "spender",
          "type": "address"
        },
        {
          "internalType": "uint256",
          "name": "amount",
          "type": "uint256"
        }
      ],
      "name": "approve",
      "outputs": [
        {
          "internalType": "bool",
          "name": "",
          "type": "bool"
        }
      ],
      "stateMutability": "nonpayable",
      "type": "function"
    },
    {
      "inputs": [
        {
          "internalType": "address",
          "name": "account",
          "type": "address"
        }
      ],
      "name": "balanceOf",
      "outputs": [
        {
          "internalType": "uint256",
          "name": "",
          "type": "uint256"
        }
      ],
      "stateMutability": "view",
      "type": "function"
    },
    {
      "inputs": [],
      "name": "decimals",
      "outputs": [
        {
          "internalType": "uint8",
          "name": "",
          "type": "uint8"
        }
      ],
      "stateMutability": "view",
      "type": "function"
    },
    {
      "inputs": [
        {
          "internalType": "address",
          "name": "spender",
          "type": "address"
        },
        {
          "internalType": "uint256",
          "name": "subtractedValue",
          "type": "uint256"
        }
      ],
      "name": "decreaseAllowance",
      "outputs": [
        {
          "internalType": "bool",
          "name": "",
          "type": "bool"
        }
      ],
      "stateMutability": "nonpayable",
      "type": "function"
    },
    {
      "inputs": [
        {
          "internalType": "uint256",
          "name": "tAmount",
          "type": "uint256"
        }
      ],
      "name": "deliver",
      "outputs": [],
      "stateMutability": "nonpayable",
      "type": "function"
    },
    {
      "inputs": [
        {
          "internalType": "address",
          "name": "account",
          "type": "address"
        }
      ],
      "name": "excludeFromFee",
      "outputs": [],
      "stateMutability": "nonpayable",
      "type": "function"
    },
    {
      "inputs": [
        {
          "internalType": "address",
          "name": "account",
          "type": "address"
        }
      ],
      "name": "excludeFromReward",
      "outputs": [],
      "stateMutability": "nonpayable",
      "type": "function"
    },
    {
      "inputs": [],
      "name": "geUnlockTime",
      "outputs": [
        {
          "internalType": "uint256",
          "name": "",
          "type": "uint256"
        }
      ],
      "stateMutability": "view",
      "type": "function"
    },
    {
      "inputs": [
        {
          "internalType": "address",
          "name": "account",
          "type": "address"
        }
      ],
      "name": "includeInFee",
      "outputs": [],
      "stateMutability": "nonpayable",
      "type": "function"
    },
    {
      "inputs": [
        {
          "internalType": "address",
          "name": "account",
          "type": "address"
        }
      ],
      "name": "includeInReward",
      "outputs": [],
      "stateMutability": "nonpayable",
      "type": "function"
    },
    {
      "inputs": [
        {
          "internalType": "address",
          "name": "spender",
          "type": "address"
        },
        {
          "internalType": "uint256",
          "name": "addedValue",
          "type": "uint256"
        }
      ],
      "name": "increaseAllowance",
      "outputs": [
        {
          "internalType": "bool",
          "name": "",
          "type": "bool"
        }
      ],
      "stateMutability": "nonpayable",
      "type": "function"
    },
    {
      "inputs": [
        {
          "internalType": "address",
          "name": "account",
          "type": "address"
        }
      ],
      "name": "isExcludedFromFee",
      "outputs": [
        {
          "internalType": "bool",
          "name": "",
          "type": "bool"
        }
      ],
      "stateMutability": "view",
      "type": "function"
    },
    {
      "inputs": [
        {
          "internalType": "address",
          "name": "account",
          "type": "address"
        }
      ],
      "name": "isExcludedFromReward",
      "outputs": [
        {
          "internalType": "bool",
          "name": "",
          "type": "bool"
        }
      ],
      "stateMutability": "view",
      "type": "function"
    },
    {
      "inputs": [
        {
          "internalType": "uint256",
          "name": "time",
          "type": "uint256"
        }
      ],
      "name": "lock",
      "outputs": [],
      "stateMutability": "nonpayable",
      "type": "function"
    },
    {
      "inputs": [],
      "name": "name",
      "outputs": [
        {
          "internalType": "string",
          "name": "",
          "type": "string"
        }
      ],
      "stateMutability": "view",
      "type": "function"
    },
    {
      "inputs": [],
      "name": "owner",
      "outputs": [
        {
          "internalType": "address",
          "name": "",
          "type": "address"
        }
      ],
      "stateMutability": "view",
      "type": "function"
    },
    {
      "inputs": [
        {
          "internalType": "uint256",
          "name": "tAmount",
          "type": "uint256"
        },
        {
          "internalType": "bool",
          "name": "deductTransferFee",
          "type": "bool"
        }
      ],
      "name": "reflectionFromToken",
      "outputs": [
        {
          "internalType": "uint256",
          "name": "",
          "type": "uint256"
        }
      ],
      "stateMutability": "view",
      "type": "function"
    },
    {
      "inputs": [],
      "name": "renounceOwnership",
      "outputs": [],
      "stateMutability": "nonpayable",
      "type": "function"
    },
    {
      "inputs": [
        {
          "internalType": "uint256",
          "name": "liquidityFee",
          "type": "uint256"
        }
      ],
      "name": "setLiquidityFeePercent",
      "outputs": [],
      "stateMutability": "nonpayable",
      "type": "function"
    },
    {
      "inputs": [
        {
          "internalType": "uint256",
          "name": "maxTxPercent",
          "type": "uint256"
        }
      ],
      "name": "setMaxTxPercent",
      "outputs": [],
      "stateMutability": "nonpayable",
      "type": "function"
    },
    {
      "inputs": [
        {
          "internalType": "bool",
          "name": "_enabled",
          "type": "bool"
        }
      ],
      "name": "setSwapAndLiquifyEnabled",
      "outputs": [],
      "stateMutability": "nonpayable",
      "type": "function"
    },
    {
      "inputs": [
        {
          "internalType": "uint256",
          "name": "taxFee",
          "type": "uint256"
        }
      ],
      "name": "setTaxFeePercent",
      "outputs": [],
      "stateMutability": "nonpayable",
      "type": "function"
    },
    {
      "inputs": [],
      "name": "swapAndLiquifyEnabled",
      "outputs": [
        {
          "internalType": "bool",
          "name": "",
          "type": "bool"
        }
      ],
      "stateMutability": "view",
      "type": "function"
    },
    {
      "inputs": [],
      "name": "symbol",
      "outputs": [
        {
          "internalType": "string",
          "name": "",
          "type": "string"
        }
      ],
      "stateMutability": "view",
      "type": "function"
    },
    {
      "inputs": [
        {
          "internalType": "uint256",
          "name": "rAmount",
          "type": "uint256"
        }
      ],
      "name": "tokenFromReflection",
      "outputs": [
        {
          "internalType": "uint256",
          "name": "",
          "type": "uint256"
        }
      ],
      "stateMutability": "view",
      "type": "function"
    },
    {
      "inputs": [],
      "name": "totalFees",
      "outputs": [
        {
          "internalType": "uint256",
          "name": "",
          "type": "uint256"
        }
      ],
      "stateMutability": "view",
      "type": "function"
    },
    {
      "inputs": [],
      "name": "totalSupply",
      "outputs": [
        {
          "internalType": "uint256",
          "name": "",
          "type": "uint256"
        }
      ],
      "stateMutability": "view",
      "type": "function"
    },
    {
      "inputs": [
        {
          "internalType": "address",
          "name": "recipient",
          "type": "address"
        },
        {
          "internalType": "uint256",
          "name": "amount",
          "type": "uint256"
        }
      ],
      "name": "transfer",
      "outputs": [
        {
          "internalType": "bool",
          "name": "",
          "type": "bool"
        }
      ],
      "stateMutability": "nonpayable",
      "type": "function"
    },
    {
      "inputs": [
        {
          "internalType": "address",
          "name": "sender",
          "type": "address"
        },
        {
          "internalType": "address",
          "name": "recipient",
          "type": "address"
        },
        {
          "internalType": "uint256",
          "name": "amount",
          "type": "uint256"
        }
      ],
      "name": "transferFrom",
      "outputs": [
        {
          "internalType": "bool",
          "name": "",
          "type": "bool"
        }
      ],
      "stateMutability": "nonpayable",
      "type": "function"
    },
    {
      "inputs": [
        {
          "internalType": "address",
          "name": "newOwner",
          "type": "address"
        }
      ],
      "name": "transferOwnership",
      "outputs": [],
      "stateMutability": "nonpayable",
      "type": "function"
    },
    {
      "inputs": [],
      "name": "unlock",
      "outputs": [],
      "stateMutability": "nonpayable",
      "type": "function"
    },
    {
      "stateMutability": "payable",
      "type": "receive"
    }
  ],
  "transactionHash": "0xe2f6263b044e07da28948d2707d25e4c5d643008f91ebe53f85bd1a78517dbd0",
  "args": [],
  "solcInputHash": "bed6821780cf744848a34e80daa41a1a",
  "bytecode": "0x65048c273950006009556502a6440eafff19600a90815561010060405260c08190526914d30cd3995dd5195cdd60b21b60e09081526200004391600c9190620003a1565b506040805180820190915260048082526329a619a760e11b60209092019182526200007191600d91620003a1565b50600e805460ff191660091790556002600f819055601055600360118190556012556013805461ff001916610100179055633b9aca006014819055601555348015620000bc57600080fd5b506000620000c96200038e565b600080546001600160a01b0319166001600160a01b0383169081178255604051929350917f8be0079c531659141344cd1fd0a4f28419497f9722a3daafe3b4186f6b6457e0908290a350600a5460036000620001246200038e565b6001600160a01b03166001600160a01b0316815260200190815260200160002081905550600073db0d31c562cb6c54c45b27309aad52b744efe9ff9050806001600160a01b031663c45a01556040518163ffffffff1660e01b815260040160206040518083038186803b1580156200019b57600080fd5b505afa158015620001b0573d6000803e3d6000fd5b505050506040513d6020811015620001c757600080fd5b5051604080516339d94ae160e11b815290516001600160a01b039283169263c9c65396923092918616916373b295c291600480820192602092909190829003018186803b1580156200021857600080fd5b505afa1580156200022d573d6000803e3d6000fd5b505050506040513d60208110156200024457600080fd5b5051604080516001600160e01b031960e086901b1681526001600160a01b0393841660048201529290911660248301525160448083019260209291908290030181600087803b1580156200029757600080fd5b505af1158015620002ac573d6000803e3d6000fd5b505050506040513d6020811015620002c357600080fd5b50516001600160601b0319606091821b811660a0529082901b16608052600160066000620002f062000392565b6001600160a01b0316815260208082019290925260409081016000908120805494151560ff1995861617905530815260069092529020805490911660011790556200033a6200038e565b6001600160a01b031660006001600160a01b03167fddf252ad1be2c89b69c2b068fc378daa952ba7f163c4a11628f55a4df523b3ef6009546040518082815260200191505060405180910390a3506200043d565b3390565b6000546001600160a01b031690565b828054600181600116156101000203166002900490600052602060002090601f016020900481019282601f10620003e457805160ff191683800117855562000414565b8280016001018555821562000414579182015b8281111562000414578251825591602001919060010190620003f7565b506200042292915062000426565b5090565b5b8082111562000422576000815560010162000427565b60805160601c60a05160601c612a34620004856000398061144852806119b0525080611712528061216c5280612224528061224b528061233152806123585250612a346000f3fe60806040526004361061021e5760003560e01c806370a0823111610123578063a9059cbb116100ab578063dd4670641161006f578063dd467064146107a8578063dd62ed3e146107d2578063ea2f0b371461080d578063f2fde38b14610840578063f30e48041461087357610225565b8063a9059cbb146106ef578063b6c5232414610728578063c49b9a801461073d578063d189e45b14610769578063d543dbeb1461077e57610225565b80638da5cb5b116100f25780638da5cb5b146106315780638ee88c531461066257806395d89b411461068c578063a457c2d7146106a1578063a69df4b5146106da57610225565b806370a08231146105a1578063715018a6146105d45780637d1db4a5146105e957806388f82020146105fe57610225565b806339509351116101a65780634549b039116101755780634549b039146104df5780634a74bb021461051157806352390c02146105265780635342acb4146105595780636bc87c3a1461058c57610225565b806339509351146104345780633b124fe71461046d5780633bd5d17314610482578063437823ec146104ac57610225565b806318160ddd116101ed57806318160ddd1461035457806323b872dd146103695780632d838119146103ac578063313ce567146103d65780633685d4191461040157610225565b8063061c82d01461022a57806306fdde0314610256578063095ea7b3146102e057806313114a9d1461032d57610225565b3661022557005b600080fd5b34801561023657600080fd5b506102546004803603602081101561024d57600080fd5b5035610888565b005b34801561026257600080fd5b5061026b6108e5565b6040805160208082528351818301528351919283929083019185019080838360005b838110156102a557818101518382015260200161028d565b50505050905090810190601f1680156102d25780820380516001836020036101000a031916815260200191505b509250505060405180910390f35b3480156102ec57600080fd5b506103196004803603604081101561030357600080fd5b506001600160a01b03813516906020013561097b565b604080519115158252519081900360200190f35b34801561033957600080fd5b50610342610999565b60408051918252519081900360200190f35b34801561036057600080fd5b5061034261099f565b34801561037557600080fd5b506103196004803603606081101561038c57600080fd5b506001600160a01b038135811691602081013590911690604001356109a5565b3480156103b857600080fd5b50610342600480360360208110156103cf57600080fd5b5035610a2c565b3480156103e257600080fd5b506103eb610a8e565b6040805160ff9092168252519081900360200190f35b34801561040d57600080fd5b506102546004803603602081101561042457600080fd5b50356001600160a01b0316610a97565b34801561044057600080fd5b506103196004803603604081101561045757600080fd5b506001600160a01b038135169060200135610c58565b34801561047957600080fd5b50610342610ca6565b34801561048e57600080fd5b50610254600480360360208110156104a557600080fd5b5035610cac565b3480156104b857600080fd5b50610254600480360360208110156104cf57600080fd5b50356001600160a01b0316610d86565b3480156104eb57600080fd5b506103426004803603604081101561050257600080fd5b50803590602001351515610e02565b34801561051d57600080fd5b50610319610e94565b34801561053257600080fd5b506102546004803603602081101561054957600080fd5b50356001600160a01b0316610ea2565b34801561056557600080fd5b506103196004803603602081101561057c57600080fd5b50356001600160a01b0316611028565b34801561059857600080fd5b50610342611046565b3480156105ad57600080fd5b50610342600480360360208110156105c457600080fd5b50356001600160a01b031661104c565b3480156105e057600080fd5b506102546110ae565b3480156105f557600080fd5b5061034261113e565b34801561060a57600080fd5b506103196004803603602081101561062157600080fd5b50356001600160a01b0316611144565b34801561063d57600080fd5b50610646611162565b604080516001600160a01b039092168252519081900360200190f35b34801561066e57600080fd5b506102546004803603602081101561068557600080fd5b5035611171565b34801561069857600080fd5b5061026b6111ce565b3480156106ad57600080fd5b50610319600480360360408110156106c457600080fd5b506001600160a01b03813516906020013561122f565b3480156106e657600080fd5b50610254611297565b3480156106fb57600080fd5b506103196004803603604081101561071257600080fd5b506001600160a01b038135169060200135611385565b34801561073457600080fd5b50610342611399565b34801561074957600080fd5b506102546004803603602081101561076057600080fd5b5035151561139f565b34801561077557600080fd5b50610646611446565b34801561078a57600080fd5b50610254600480360360208110156107a157600080fd5b503561146a565b3480156107b457600080fd5b50610254600480360360208110156107cb57600080fd5b50356114e8565b3480156107de57600080fd5b50610342600480360360408110156107f557600080fd5b506001600160a01b0381358116916020013516611586565b34801561081957600080fd5b506102546004803603602081101561083057600080fd5b50356001600160a01b03166115b1565b34801561084c57600080fd5b506102546004803603602081101561086357600080fd5b50356001600160a01b031661162a565b34801561087f57600080fd5b50610646611710565b610890611734565b6000546001600160a01b039081169116146108e0576040805162461bcd60e51b815260206004820181905260248201526000805160206128d9833981519152604482015290519081900360640190fd5b600f55565b600c8054604080516020601f60026000196101006001881615020190951694909404938401819004810282018101909252828152606093909290918301828280156109715780601f1061094657610100808354040283529160200191610971565b820191906000526020600020905b81548152906001019060200180831161095457829003601f168201915b5050505050905090565b600061098f610988611734565b8484611738565b5060015b92915050565b600b5490565b60095490565b60006109b2848484611824565b610a22846109be611734565b610a1d856040518060600160405280602881526020016128b1602891396001600160a01b038a166000908152600560205260408120906109fc611734565b6001600160a01b031681526020810191909152604001600020549190611a6a565b611738565b5060019392505050565b6000600a54821115610a6f5760405162461bcd60e51b815260040180806020018281038252602a8152602001806127f6602a913960400191505060405180910390fd5b6000610a79611b01565b9050610a858382611b24565b9150505b919050565b600e5460ff1690565b610a9f611734565b6000546001600160a01b03908116911614610aef576040805162461bcd60e51b815260206004820181905260248201526000805160206128d9833981519152604482015290519081900360640190fd5b6001600160a01b03811660009081526007602052604090205460ff16610b5c576040805162461bcd60e51b815260206004820152601b60248201527f4163636f756e7420697320616c726561647920696e636c756465640000000000604482015290519081900360640190fd5b60005b600854811015610c5457816001600160a01b031660088281548110610b8057fe5b6000918252602090912001546001600160a01b03161415610c4c57600880546000198101908110610bad57fe5b600091825260209091200154600880546001600160a01b039092169183908110610bd357fe5b600091825260208083209190910180546001600160a01b0319166001600160a01b039485161790559184168152600482526040808220829055600790925220805460ff191690556008805480610c2557fe5b600082815260209020810160001990810180546001600160a01b0319169055019055610c54565b600101610b5f565b5050565b600061098f610c65611734565b84610a1d8560056000610c76611734565b6001600160a01b03908116825260208083019390935260409182016000908120918c168152925290205490611b6d565b600f5481565b6000610cb6611734565b6001600160a01b03811660009081526007602052604090205490915060ff1615610d115760405162461bcd60e51b815260040180806020018281038252602c81526020018061298b602c913960400191505060405180910390fd5b6000610d1c83611bc7565b505050506001600160a01b038416600090815260036020526040902054919250610d4891905082611c16565b6001600160a01b038316600090815260036020526040902055600a54610d6e9082611c16565b600a55600b54610d7e9084611b6d565b600b55505050565b610d8e611734565b6000546001600160a01b03908116911614610dde576040805162461bcd60e51b815260206004820181905260248201526000805160206128d9833981519152604482015290519081900360640190fd5b6001600160a01b03166000908152600660205260409020805460ff19166001179055565b6000600954831115610e5b576040805162461bcd60e51b815260206004820152601f60248201527f416d6f756e74206d757374206265206c657373207468616e20737570706c7900604482015290519081900360640190fd5b81610e7a576000610e6b84611bc7565b50939550610993945050505050565b6000610e8584611bc7565b50929550610993945050505050565b601354610100900460ff1681565b610eaa611734565b6000546001600160a01b03908116911614610efa576040805162461bcd60e51b815260206004820181905260248201526000805160206128d9833981519152604482015290519081900360640190fd5b6001600160a01b03811660009081526007602052604090205460ff1615610f68576040805162461bcd60e51b815260206004820152601b60248201527f4163636f756e7420697320616c7265616479206578636c756465640000000000604482015290519081900360640190fd5b6001600160a01b03811660009081526003602052604090205415610fc2576001600160a01b038116600090815260036020526040902054610fa890610a2c565b6001600160a01b0382166000908152600460205260409020555b6001600160a01b03166000818152600760205260408120805460ff191660019081179091556008805491820181559091527ff3f7a9fe364faab93b216da50a3214154f22a0a2b415b23a84c8169e8b636ee30180546001600160a01b0319169091179055565b6001600160a01b031660009081526006602052604090205460ff1690565b60115481565b6001600160a01b03811660009081526007602052604081205460ff161561108c57506001600160a01b038116600090815260046020526040902054610a89565b6001600160a01b03821660009081526003602052604090205461099390610a2c565b6110b6611734565b6000546001600160a01b03908116911614611106576040805162461bcd60e51b815260206004820181905260248201526000805160206128d9833981519152604482015290519081900360640190fd5b600080546040516001600160a01b03909116906000805160206128f9833981519152908390a3600080546001600160a01b0319169055565b60145481565b6001600160a01b031660009081526007602052604090205460ff1690565b6000546001600160a01b031690565b611179611734565b6000546001600160a01b039081169116146111c9576040805162461bcd60e51b815260206004820181905260248201526000805160206128d9833981519152604482015290519081900360640190fd5b601155565b600d8054604080516020601f60026000196101006001881615020190951694909404938401819004810282018101909252828152606093909290918301828280156109715780601f1061094657610100808354040283529160200191610971565b600061098f61123c611734565b84610a1d856040518060600160405280602581526020016129da6025913960056000611266611734565b6001600160a01b03908116825260208083019390935260409182016000908120918d16815292529020549190611a6a565b6001546001600160a01b031633146112e05760405162461bcd60e51b81526004018080602001828103825260238152602001806129b76023913960400191505060405180910390fd5b6002544211611336576040805162461bcd60e51b815260206004820152601f60248201527f436f6e7472616374206973206c6f636b656420756e74696c2037206461797300604482015290519081900360640190fd5b600154600080546040516001600160a01b0393841693909116916000805160206128f983398151915291a3600154600080546001600160a01b0319166001600160a01b03909216919091179055565b600061098f611392611734565b8484611824565b60025490565b6113a7611734565b6000546001600160a01b039081169116146113f7576040805162461bcd60e51b815260206004820181905260248201526000805160206128d9833981519152604482015290519081900360640190fd5b60138054821515610100810261ff00199092169190911790915560408051918252517f53726dfcaf90650aa7eb35524f4d3220f07413c8d6cb404cc8c18bf5591bc1599181900360200190a150565b7f000000000000000000000000000000000000000000000000000000000000000081565b611472611734565b6000546001600160a01b039081169116146114c2576040805162461bcd60e51b815260206004820181905260248201526000805160206128d9833981519152604482015290519081900360640190fd5b6114e260646114dc83600954611c5890919063ffffffff16565b90611b24565b60145550565b6114f0611734565b6000546001600160a01b03908116911614611540576040805162461bcd60e51b815260206004820181905260248201526000805160206128d9833981519152604482015290519081900360640190fd5b60008054600180546001600160a01b03199081166001600160a01b0384161790915516815542820160025560405181906000805160206128f9833981519152908290a350565b6001600160a01b03918216600090815260056020908152604080832093909416825291909152205490565b6115b9611734565b6000546001600160a01b03908116911614611609576040805162461bcd60e51b815260206004820181905260248201526000805160206128d9833981519152604482015290519081900360640190fd5b6001600160a01b03166000908152600660205260409020805460ff19169055565b611632611734565b6000546001600160a01b03908116911614611682576040805162461bcd60e51b815260206004820181905260248201526000805160206128d9833981519152604482015290519081900360640190fd5b6001600160a01b0381166116c75760405162461bcd60e51b81526004018080602001828103825260268152602001806128206026913960400191505060405180910390fd5b600080546040516001600160a01b03808516939216916000805160206128f983398151915291a3600080546001600160a01b0319166001600160a01b0392909216919091179055565b7f000000000000000000000000000000000000000000000000000000000000000081565b3390565b6001600160a01b03831661177d5760405162461bcd60e51b81526004018080602001828103825260248152602001806129676024913960400191505060405180910390fd5b6001600160a01b0382166117c25760405162461bcd60e51b81526004018080602001828103825260228152602001806128466022913960400191505060405180910390fd5b6001600160a01b03808416600081815260056020908152604080832094871680845294825291829020859055815185815291517f8c5be1e5ebec7d5bd14f71427d1e84f3dd0314c0f7b2291e5b200ac8c7c3b9259281900390910190a3505050565b6001600160a01b0383166118695760405162461bcd60e51b81526004018080602001828103825260258152602001806129426025913960400191505060405180910390fd5b6001600160a01b0382166118ae5760405162461bcd60e51b81526004018080602001828103825260238152602001806127d36023913960400191505060405180910390fd5b600081116118ed5760405162461bcd60e51b81526004018080602001828103825260298152602001806129196029913960400191505060405180910390fd5b6118f5611162565b6001600160a01b0316836001600160a01b03161415801561192f5750611919611162565b6001600160a01b0316826001600160a01b031614155b15611975576014548111156119755760405162461bcd60e51b81526004018080602001828103825260288152602001806128686028913960400191505060405180910390fd5b60006119803061104c565b9050601454811061199057506014545b601554811080159081906119a7575060135460ff16155b80156119e557507f00000000000000000000000000000000000000000000000000000000000000006001600160a01b0316856001600160a01b031614155b80156119f85750601354610100900460ff165b15611a0b576015549150611a0b82611cb1565b6001600160a01b03851660009081526006602052604090205460019060ff1680611a4d57506001600160a01b03851660009081526006602052604090205460ff165b15611a56575060005b611a6286868684611d4e565b505050505050565b60008184841115611af95760405162461bcd60e51b81526004018080602001828103825283818151815260200191508051906020019080838360005b83811015611abe578181015183820152602001611aa6565b50505050905090810190601f168015611aeb5780820380516001836020036101000a031916815260200191505b509250505060405180910390fd5b505050900390565b6000806000611b0e611ec2565b9092509050611b1d8282611b24565b9250505090565b6000611b6683836040518060400160405280601a81526020017f536166654d6174683a206469766973696f6e206279207a65726f000000000000815250612025565b9392505050565b600082820183811015611b66576040805162461bcd60e51b815260206004820152601b60248201527f536166654d6174683a206164646974696f6e206f766572666c6f770000000000604482015290519081900360640190fd5b6000806000806000806000806000611bde8a61208a565b9250925092506000806000611bfc8d8686611bf7611b01565b6120cc565b919f909e50909c50959a5093985091965092945050505050565b6000611b6683836040518060400160405280601e81526020017f536166654d6174683a207375627472616374696f6e206f766572666c6f770000815250611a6a565b600082611c6757506000610993565b82820282848281611c7457fe5b0414611b665760405162461bcd60e51b81526004018080602001828103825260218152602001806128906021913960400191505060405180910390fd5b6013805460ff191660011790556000611ccb826002611b24565b90506000611cd98383611c16565b905047611ce58361211c565b6000611cf14783611c16565b9050611cfd838261232b565b604080518581526020810183905280820185905290517f17bbfb9a6069321b6ded73bd96327c9e6b7212a5cd51ff219cd61370acafb5619181900360600190a150506013805460ff19169055505050565b80611d5b57611d5b612429565b6001600160a01b03841660009081526007602052604090205460ff168015611d9c57506001600160a01b03831660009081526007602052604090205460ff16155b15611db157611dac84848461245b565b611eaf565b6001600160a01b03841660009081526007602052604090205460ff16158015611df257506001600160a01b03831660009081526007602052604090205460ff165b15611e0257611dac84848461257f565b6001600160a01b03841660009081526007602052604090205460ff16158015611e4457506001600160a01b03831660009081526007602052604090205460ff16155b15611e5457611dac848484612628565b6001600160a01b03841660009081526007602052604090205460ff168015611e9457506001600160a01b03831660009081526007602052604090205460ff165b15611ea457611dac84848461266c565b611eaf848484612628565b80611ebc57611ebc6126df565b50505050565b600a546009546000918291825b600854811015611ff357826003600060088481548110611eeb57fe5b60009182526020808320909101546001600160a01b031683528201929092526040019020541180611f505750816004600060088481548110611f2957fe5b60009182526020808320909101546001600160a01b03168352820192909252604001902054115b15611f6757600a5460095494509450505050612021565b611fa76003600060088481548110611f7b57fe5b60009182526020808320909101546001600160a01b031683528201929092526040019020548490611c16565b9250611fe96004600060088481548110611fbd57fe5b60009182526020808320909101546001600160a01b031683528201929092526040019020548390611c16565b9150600101611ecf565b50600954600a5461200391611b24565b82101561201b57600a54600954935093505050612021565b90925090505b9091565b600081836120745760405162461bcd60e51b8152602060048201818152835160248401528351909283926044909101919085019080838360008315611abe578181015183820152602001611aa6565b50600083858161208057fe5b0495945050505050565b600080600080612099856126ed565b905060006120a686612709565b905060006120be826120b88986611c16565b90611c16565b979296509094509092505050565b60008080806120db8886611c58565b905060006120e98887611c58565b905060006120f78888611c58565b90506000612109826120b88686611c16565b939b939a50919850919650505050505050565b6040805160028082526060808301845292602083019080368337019050509050308160008151811061214a57fe5b60200260200101906001600160a01b031690816001600160a01b0316815250507f00000000000000000000000000000000000000000000000000000000000000006001600160a01b03166373b295c26040518163ffffffff1660e01b815260040160206040518083038186803b1580156121c357600080fd5b505afa1580156121d7573d6000803e3d6000fd5b505050506040513d60208110156121ed57600080fd5b50518151829060019081106121fe57fe5b60200260200101906001600160a01b031690816001600160a01b031681525050612249307f000000000000000000000000000000000000000000000000000000000000000084611738565b7f00000000000000000000000000000000000000000000000000000000000000006001600160a01b031663762b15628360008430426040518663ffffffff1660e01b81526004018086815260200185815260200180602001846001600160a01b03168152602001838152602001828103825285818151815260200191508051906020019060200280838360005b838110156122ee5781810151838201526020016122d6565b505050509050019650505050505050600060405180830381600087803b15801561231757600080fd5b505af1158015611a62573d6000803e3d6000fd5b612356307f000000000000000000000000000000000000000000000000000000000000000084611738565b7f00000000000000000000000000000000000000000000000000000000000000006001600160a01b031663f91b3f72823085600080612393611162565b426040518863ffffffff1660e01b815260040180876001600160a01b03168152602001868152602001858152602001848152602001836001600160a01b0316815260200182815260200196505050505050506060604051808303818588803b1580156123fe57600080fd5b505af1158015612412573d6000803e3d6000fd5b50505050506040513d6060811015611ebc57600080fd5b600f541580156124395750601154155b1561244357612459565b600f805460105560118054601255600091829055555b565b60008060008060008061246d87611bc7565b6001600160a01b038f16600090815260046020526040902054959b5093995091975095509350915061249f9088611c16565b6001600160a01b038a166000908152600460209081526040808320939093556003905220546124ce9087611c16565b6001600160a01b03808b1660009081526003602052604080822093909355908a16815220546124fd9086611b6d565b6001600160a01b03891660009081526003602052604090205561251f81612725565b61252984836127ae565b876001600160a01b0316896001600160a01b03167fddf252ad1be2c89b69c2b068fc378daa952ba7f163c4a11628f55a4df523b3ef856040518082815260200191505060405180910390a3505050505050505050565b60008060008060008061259187611bc7565b6001600160a01b038f16600090815260036020526040902054959b509399509197509550935091506125c39087611c16565b6001600160a01b03808b16600090815260036020908152604080832094909455918b168152600490915220546125f99084611b6d565b6001600160a01b0389166000908152600460209081526040808320939093556003905220546124fd9086611b6d565b60008060008060008061263a87611bc7565b6001600160a01b038f16600090815260036020526040902054959b509399509197509550935091506124ce9087611c16565b60008060008060008061267e87611bc7565b6001600160a01b038f16600090815260046020526040902054959b509399509197509550935091506126b09088611c16565b6001600160a01b038a166000908152600460209081526040808320939093556003905220546125c39087611c16565b601054600f55601254601155565b600061099360646114dc600f5485611c5890919063ffffffff16565b600061099360646114dc60115485611c5890919063ffffffff16565b600061272f611b01565b9050600061273d8383611c58565b3060009081526003602052604090205490915061275a9082611b6d565b3060009081526003602090815260408083209390935560079052205460ff16156127a957306000908152600460205260409020546127989084611b6d565b306000908152600460205260409020555b505050565b600a546127bb9083611c16565b600a55600b546127cb9082611b6d565b600b55505056fe45524332303a207472616e7366657220746f20746865207a65726f2061646472657373416d6f756e74206d757374206265206c657373207468616e20746f74616c207265666c656374696f6e734f776e61626c653a206e6577206f776e657220697320746865207a65726f206164647265737345524332303a20617070726f766520746f20746865207a65726f20616464726573735472616e7366657220616d6f756e74206578636565647320746865206d61785478416d6f756e742e536166654d6174683a206d756c7469706c69636174696f6e206f766572666c6f7745524332303a207472616e7366657220616d6f756e74206578636565647320616c6c6f77616e63654f776e61626c653a2063616c6c6572206973206e6f7420746865206f776e65728be0079c531659141344cd1fd0a4f28419497f9722a3daafe3b4186f6b6457e05472616e7366657220616d6f756e74206d7573742062652067726561746572207468616e207a65726f45524332303a207472616e736665722066726f6d20746865207a65726f206164647265737345524332303a20617070726f76652066726f6d20746865207a65726f20616464726573734578636c75646564206164647265737365732063616e6e6f742063616c6c20746869732066756e6374696f6e596f7520646f6e27742068617665207065726d697373696f6e20746f20756e6c6f636b45524332303a2064656372656173656420616c6c6f77616e63652062656c6f77207a65726fa264697066735822122011289ce0e5fb002cff19d8054ee4e3af656a81636d0b1168e3cbf4322385670064736f6c634300060c0033",
  "devdoc": {
    "kind": "dev",
    "methods": {
      "allowance(address,address)": {
        "details": "Returns the remaining number of tokens that `spender` will be allowed to spend on behalf of `owner` through {transferFrom}. This is zero by default. This value changes when {approve} or {transferFrom} are called."
      },
      "approve(address,uint256)": {
        "details": "Sets `amount` as the allowance of `spender` over the caller's tokens. Returns a boolean value indicating whether the operation succeeded. IMPORTANT: Beware that changing an allowance with this method brings the risk that someone may use both the old and the new allowance by unfortunate transaction ordering. One possible solution to mitigate this race condition is to first reduce the spender's allowance to 0 and set the desired value afterwards: https://github.com/ethereum/EIPs/issues/20#issuecomment-263524729 Emits an {Approval} event."
      },
      "balanceOf(address)": {
        "details": "Returns the amount of tokens owned by `account`."
      },
      "owner()": {
        "details": "Returns the address of the current owner."
      },
      "renounceOwnership()": {
        "details": "Leaves the contract without owner. It will not be possible to call `onlyOwner` functions anymore. Can only be called by the current owner. NOTE: Renouncing ownership will leave the contract without an owner, thereby removing any functionality that is only available to the owner."
      },
      "transfer(address,uint256)": {
        "details": "Moves `amount` tokens from the caller's account to `recipient`. Returns a boolean value indicating whether the operation succeeded. Emits a {Transfer} event."
      },
      "transferFrom(address,address,uint256)": {
        "details": "Moves `amount` tokens from `sender` to `recipient` using the allowance mechanism. `amount` is then deducted from the caller's allowance. Returns a boolean value indicating whether the operation succeeded. Emits a {Transfer} event."
      },
      "transferOwnership(address)": {
        "details": "Transfers ownership of the contract to a new account (`newOwner`). Can only be called by the current owner."
      }
    },
    "version": 1
  },
  "userdoc": {
    "kind": "user",
    "methods": {},
    "version": 1
  },
  "storageLayout": {
    "storage": [
      {
        "astId": 497,
        "contract": "contracts/SL31010.sol:SL31010",
        "label": "_owner",
        "offset": 0,
        "slot": "0",
        "type": "t_address"
      },
      {
        "astId": 499,
        "contract": "contracts/SL31010.sol:SL31010",
        "label": "_previousOwner",
        "offset": 0,
        "slot": "1",
        "type": "t_address"
      },
      {
        "astId": 501,
        "contract": "contracts/SL31010.sol:SL31010",
        "label": "_lockTime",
        "offset": 0,
        "slot": "2",
        "type": "t_uint256"
      },
      {
        "astId": 1376,
        "contract": "contracts/SL31010.sol:SL31010",
        "label": "_rOwned",
        "offset": 0,
        "slot": "3",
        "type": "t_mapping(t_address,t_uint256)"
      },
      {
        "astId": 1380,
        "contract": "contracts/SL31010.sol:SL31010",
        "label": "_tOwned",
        "offset": 0,
        "slot": "4",
        "type": "t_mapping(t_address,t_uint256)"
      },
      {
        "astId": 1386,
        "contract": "contracts/SL31010.sol:SL31010",
        "label": "_allowances",
        "offset": 0,
        "slot": "5",
        "type": "t_mapping(t_address,t_mapping(t_address,t_uint256))"
      },
      {
        "astId": 1390,
        "contract": "contracts/SL31010.sol:SL31010",
        "label": "_isExcludedFromFee",
        "offset": 0,
        "slot": "6",
        "type": "t_mapping(t_address,t_bool)"
      },
      {
        "astId": 1394,
        "contract": "contracts/SL31010.sol:SL31010",
        "label": "_isExcluded",
        "offset": 0,
        "slot": "7",
        "type": "t_mapping(t_address,t_bool)"
      },
      {
        "astId": 1397,
        "contract": "contracts/SL31010.sol:SL31010",
        "label": "_excluded",
        "offset": 0,
        "slot": "8",
        "type": "t_array(t_address)dyn_storage"
      },
      {
        "astId": 1407,
        "contract": "contracts/SL31010.sol:SL31010",
        "label": "_tTotal",
        "offset": 0,
        "slot": "9",
        "type": "t_uint256"
      },
      {
        "astId": 1416,
        "contract": "contracts/SL31010.sol:SL31010",
        "label": "_rTotal",
        "offset": 0,
        "slot": "10",
        "type": "t_uint256"
      },
      {
        "astId": 1418,
        "contract": "contracts/SL31010.sol:SL31010",
        "label": "_tFeeTotal",
        "offset": 0,
        "slot": "11",
        "type": "t_uint256"
      },
      {
        "astId": 1421,
        "contract": "contracts/SL31010.sol:SL31010",
        "label": "_name",
        "offset": 0,
        "slot": "12",
        "type": "t_string_storage"
      },
      {
        "astId": 1424,
        "contract": "contracts/SL31010.sol:SL31010",
        "label": "_symbol",
        "offset": 0,
        "slot": "13",
        "type": "t_string_storage"
      },
      {
        "astId": 1427,
        "contract": "contracts/SL31010.sol:SL31010",
        "label": "_decimals",
        "offset": 0,
        "slot": "14",
        "type": "t_uint8"
      },
      {
        "astId": 1430,
        "contract": "contracts/SL31010.sol:SL31010",
        "label": "_taxFee",
        "offset": 0,
        "slot": "15",
        "type": "t_uint256"
      },
      {
        "astId": 1433,
        "contract": "contracts/SL31010.sol:SL31010",
        "label": "_previousTaxFee",
        "offset": 0,
        "slot": "16",
        "type": "t_uint256"
      },
      {
        "astId": 1436,
        "contract": "contracts/SL31010.sol:SL31010",
        "label": "_liquidityFee",
        "offset": 0,
        "slot": "17",
        "type": "t_uint256"
      },
      {
        "astId": 1439,
        "contract": "contracts/SL31010.sol:SL31010",
        "label": "_previousLiquidityFee",
        "offset": 0,
        "slot": "18",
        "type": "t_uint256"
      },
      {
        "astId": 1445,
        "contract": "contracts/SL31010.sol:SL31010",
        "label": "inSwapAndLiquify",
        "offset": 0,
        "slot": "19",
        "type": "t_bool"
      },
      {
        "astId": 1448,
        "contract": "contracts/SL31010.sol:SL31010",
        "label": "swapAndLiquifyEnabled",
        "offset": 1,
        "slot": "19",
        "type": "t_bool"
      },
      {
        "astId": 1451,
        "contract": "contracts/SL31010.sol:SL31010",
        "label": "_maxTxAmount",
        "offset": 0,
        "slot": "20",
        "type": "t_uint256"
      },
      {
        "astId": 1454,
        "contract": "contracts/SL31010.sol:SL31010",
        "label": "numTokensSellToAddToLiquidity",
        "offset": 0,
        "slot": "21",
        "type": "t_uint256"
      }
    ],
    "types": {
      "t_address": {
        "encoding": "inplace",
        "label": "address",
        "numberOfBytes": "20"
      },
      "t_array(t_address)dyn_storage": {
        "base": "t_address",
        "encoding": "dynamic_array",
        "label": "address[]",
        "numberOfBytes": "32"
      },
      "t_bool": {
        "encoding": "inplace",
        "label": "bool",
        "numberOfBytes": "1"
      },
      "t_mapping(t_address,t_bool)": {
        "encoding": "mapping",
        "key": "t_address",
        "label": "mapping(address => bool)",
        "numberOfBytes": "32",
        "value": "t_bool"
      },
      "t_mapping(t_address,t_mapping(t_address,t_uint256))": {
        "encoding": "mapping",
        "key": "t_address",
        "label": "mapping(address => mapping(address => uint256))",
        "numberOfBytes": "32",
        "value": "t_mapping(t_address,t_uint256)"
      },
      "t_mapping(t_address,t_uint256)": {
        "encoding": "mapping",
        "key": "t_address",
        "label": "mapping(address => uint256)",
        "numberOfBytes": "32",
        "value": "t_uint256"
      },
      "t_string_storage": {
        "encoding": "bytes",
        "label": "string",
        "numberOfBytes": "32"
      },
      "t_uint256": {
        "encoding": "inplace",
        "label": "uint256",
        "numberOfBytes": "32"
      },
      "t_uint8": {
        "encoding": "inplace",
        "label": "uint8",
        "numberOfBytes": "1"
      }
    }
  }
}