{
  "_format": "hh-sol-artifact-1",
  "contractName": "SFIIceAge918",
  "sourceName": "contracts/SFIIceAge918.sol",
  "abi": [
    {
      "inputs": [],
      "stateMutability": "nonpayable",
      "type": "constructor"
    },
    {
      "anonymous": false,
      "inputs": [
        {
          "indexed": true,
          "internalType": "address",
          "name": "owner",
          "type": "address"
        },
        {
          "indexed": true,
          "internalType": "address",
          "name": "spender",
          "type": "address"
        },
        {
          "indexed": false,
          "internalType": "uint256",
          "name": "value",
          "type": "uint256"
        }
      ],
      "name": "Approval",
      "type": "event"
    },
    {
      "anonymous": false,
      "inputs": [
        {
          "indexed": true,
          "internalType": "address",
          "name": "previousOwner",
          "type": "address"
        },
        {
          "indexed": true,
          "internalType": "address",
          "name": "newOwner",
          "type": "address"
        }
      ],
      "name": "OwnershipTransferred",
      "type": "event"
    },
    {
      "anonymous": false,
      "inputs": [
        {
          "indexed": true,
          "internalType": "address",
          "name": "from",
          "type": "address"
        },
        {
          "indexed": true,
          "internalType": "address",
          "name": "to",
          "type": "address"
        },
        {
          "indexed": false,
          "internalType": "uint256",
          "name": "value",
          "type": "uint256"
        }
      ],
      "name": "Transfer",
      "type": "event"
    },
    {
      "inputs": [
        {
          "internalType": "address",
          "name": "owner",
          "type": "address"
        },
        {
          "internalType": "address",
          "name": "spender",
          "type": "address"
        }
      ],
      "name": "allowance",
      "outputs": [
        {
          "internalType": "uint256",
          "name": "",
          "type": "uint256"
        }
      ],
      "stateMutability": "view",
      "type": "function"
    },
    {
      "inputs": [
        {
          "internalType": "address",
          "name": "spender",
          "type": "address"
        },
        {
          "internalType": "uint256",
          "name": "amount",
          "type": "uint256"
        }
      ],
      "name": "approve",
      "outputs": [
        {
          "internalType": "bool",
          "name": "",
          "type": "bool"
        }
      ],
      "stateMutability": "nonpayable",
      "type": "function"
    },
    {
      "inputs": [
        {
          "internalType": "address",
          "name": "account",
          "type": "address"
        }
      ],
      "name": "balanceOf",
      "outputs": [
        {
          "internalType": "uint256",
          "name": "",
          "type": "uint256"
        }
      ],
      "stateMutability": "view",
      "type": "function"
    },
    {
      "inputs": [],
      "name": "decimals",
      "outputs": [
        {
          "internalType": "uint8",
          "name": "",
          "type": "uint8"
        }
      ],
      "stateMutability": "view",
      "type": "function"
    },
    {
      "inputs": [
        {
          "internalType": "address",
          "name": "spender",
          "type": "address"
        },
        {
          "internalType": "uint256",
          "name": "subtractedValue",
          "type": "uint256"
        }
      ],
      "name": "decreaseAllowance",
      "outputs": [
        {
          "internalType": "bool",
          "name": "",
          "type": "bool"
        }
      ],
      "stateMutability": "nonpayable",
      "type": "function"
    },
    {
      "inputs": [
        {
          "internalType": "address",
          "name": "account",
          "type": "address"
        }
      ],
      "name": "excludeAccount",
      "outputs": [],
      "stateMutability": "nonpayable",
      "type": "function"
    },
    {
      "inputs": [
        {
          "internalType": "address",
          "name": "account",
          "type": "address"
        }
      ],
      "name": "includeAccount",
      "outputs": [],
      "stateMutability": "nonpayable",
      "type": "function"
    },
    {
      "inputs": [
        {
          "internalType": "address",
          "name": "spender",
          "type": "address"
        },
        {
          "internalType": "uint256",
          "name": "addedValue",
          "type": "uint256"
        }
      ],
      "name": "increaseAllowance",
      "outputs": [
        {
          "internalType": "bool",
          "name": "",
          "type": "bool"
        }
      ],
      "stateMutability": "nonpayable",
      "type": "function"
    },
    {
      "inputs": [
        {
          "internalType": "address",
          "name": "account",
          "type": "address"
        }
      ],
      "name": "isExcluded",
      "outputs": [
        {
          "internalType": "bool",
          "name": "",
          "type": "bool"
        }
      ],
      "stateMutability": "view",
      "type": "function"
    },
    {
      "inputs": [],
      "name": "name",
      "outputs": [
        {
          "internalType": "string",
          "name": "",
          "type": "string"
        }
      ],
      "stateMutability": "view",
      "type": "function"
    },
    {
      "inputs": [],
      "name": "owner",
      "outputs": [
        {
          "internalType": "address",
          "name": "",
          "type": "address"
        }
      ],
      "stateMutability": "view",
      "type": "function"
    },
    {
      "inputs": [
        {
          "internalType": "uint256",
          "name": "tAmount",
          "type": "uint256"
        }
      ],
      "name": "reflect",
      "outputs": [],
      "stateMutability": "nonpayable",
      "type": "function"
    },
    {
      "inputs": [
        {
          "internalType": "uint256",
          "name": "tAmount",
          "type": "uint256"
        },
        {
          "internalType": "bool",
          "name": "deductTransferFee",
          "type": "bool"
        }
      ],
      "name": "reflectionFromToken",
      "outputs": [
        {
          "internalType": "uint256",
          "name": "",
          "type": "uint256"
        }
      ],
      "stateMutability": "view",
      "type": "function"
    },
    {
      "inputs": [],
      "name": "renounceOwnership",
      "outputs": [],
      "stateMutability": "nonpayable",
      "type": "function"
    },
    {
      "inputs": [],
      "name": "symbol",
      "outputs": [
        {
          "internalType": "string",
          "name": "",
          "type": "string"
        }
      ],
      "stateMutability": "view",
      "type": "function"
    },
    {
      "inputs": [
        {
          "internalType": "uint256",
          "name": "rAmount",
          "type": "uint256"
        }
      ],
      "name": "tokenFromReflection",
      "outputs": [
        {
          "internalType": "uint256",
          "name": "",
          "type": "uint256"
        }
      ],
      "stateMutability": "view",
      "type": "function"
    },
    {
      "inputs": [],
      "name": "totalFees",
      "outputs": [
        {
          "internalType": "uint256",
          "name": "",
          "type": "uint256"
        }
      ],
      "stateMutability": "view",
      "type": "function"
    },
    {
      "inputs": [],
      "name": "totalSupply",
      "outputs": [
        {
          "internalType": "uint256",
          "name": "",
          "type": "uint256"
        }
      ],
      "stateMutability": "pure",
      "type": "function"
    },
    {
      "inputs": [
        {
          "internalType": "address",
          "name": "recipient",
          "type": "address"
        },
        {
          "internalType": "uint256",
          "name": "amount",
          "type": "uint256"
        }
      ],
      "name": "transfer",
      "outputs": [
        {
          "internalType": "bool",
          "name": "",
          "type": "bool"
        }
      ],
      "stateMutability": "nonpayable",
      "type": "function"
    },
    {
      "inputs": [
        {
          "internalType": "address",
          "name": "sender",
          "type": "address"
        },
        {
          "internalType": "address",
          "name": "recipient",
          "type": "address"
        },
        {
          "internalType": "uint256",
          "name": "amount",
          "type": "uint256"
        }
      ],
      "name": "transferFrom",
      "outputs": [
        {
          "internalType": "bool",
          "name": "",
          "type": "bool"
        }
      ],
      "stateMutability": "nonpayable",
      "type": "function"
    },
    {
      "inputs": [
        {
          "internalType": "address",
          "name": "newOwner",
          "type": "address"
        }
      ],
      "name": "transferOwnership",
      "outputs": [],
      "stateMutability": "nonpayable",
      "type": "function"
    }
  ],
  "bytecode": "0x608060405262000019662386f26fc10000600019620002a4565b620000279060001962000243565b60065560408051808201909152600c8082526b0a68c9292c6ca82ceca7262760a31b60209092019182526200005f9160089162000194565b50604080518082019091526006808252650a68c927262760d31b60209092019182526200008f9160099162000194565b50600a805460ff19166009179055348015620000aa57600080fd5b506000620000b762000190565b600080546001600160a01b0319166001600160a01b0383169081178255604051929350917f8be0079c531659141344cd1fd0a4f28419497f9722a3daafe3b4186f6b6457e0908290a350600654600160006200011262000190565b6001600160a01b031681526020810191909152604001600020556200013662000190565b6001600160a01b031660006001600160a01b03167fddf252ad1be2c89b69c2b068fc378daa952ba7f163c4a11628f55a4df523b3ef662386f26fc100006040516200018291906200023a565b60405180910390a3620002c5565b3390565b828054620001a29062000267565b90600052602060002090601f016020900481019282620001c6576000855562000211565b82601f10620001e157805160ff191683800117855562000211565b8280016001018555821562000211579182015b8281111562000211578251825591602001919060010190620001f4565b506200021f92915062000223565b5090565b5b808211156200021f576000815560010162000224565b90815260200190565b6000828210156200026257634e487b7160e01b81526011600452602481fd5b500390565b6002810460018216806200027c57607f821691505b602082108114156200029e57634e487b7160e01b600052602260045260246000fd5b50919050565b600082620002c057634e487b7160e01b81526012600452602481fd5b500690565b61195880620002d56000396000f3fe608060405234801561001057600080fd5b50600436106101375760003560e01c806370a08231116100b8578063a9059cbb1161007c578063a9059cbb14610258578063cba0e9961461026b578063dd62ed3e1461027e578063f2cc0c1814610291578063f2fde38b146102a4578063f84354f1146102b757610137565b806370a082311461020d578063715018a6146102205780638da5cb5b1461022857806395d89b411461023d578063a457c2d71461024557610137565b806323b872dd116100ff57806323b872dd146101ac5780632d838119146101bf578063313ce567146101d257806339509351146101e75780634549b039146101fa57610137565b8063053ab1821461013c57806306fdde0314610151578063095ea7b31461016f57806313114a9d1461018f57806318160ddd146101a4575b600080fd5b61014f61014a366004611451565b6102ca565b005b61015961038c565b60405161016691906114bb565b60405180910390f35b61018261017d366004611428565b61041e565b60405161016691906114b0565b61019761043c565b60405161016691906117e4565b610197610442565b6101826101ba3660046113ed565b61044d565b6101976101cd366004611451565b6104d4565b6101da610517565b60405161016691906117ed565b6101826101f5366004611428565b610520565b610197610208366004611469565b61056e565b61019761021b3660046113a1565b6105ce565b61014f610630565b6102306106b9565b604051610166919061149c565b6101596106c8565b610182610253366004611428565b6106d7565b610182610266366004611428565b61073f565b6101826102793660046113a1565b610753565b61019761028c3660046113bb565b610771565b61014f61029f3660046113a1565b61079c565b61014f6102b23660046113a1565b6108d4565b61014f6102c53660046113a1565b610994565b60006102d4610b69565b6001600160a01b03811660009081526004602052604090205490915060ff16156103195760405162461bcd60e51b815260040161031090611798565b60405180910390fd5b600061032483610b6d565b505050506001600160a01b03831660009081526001602052604090205490915061034e9082610bb9565b6001600160a01b0383166000908152600160205260409020556006546103749082610bb9565b6006556007546103849084610bcc565b600755505050565b60606008805461039b90611869565b80601f01602080910402602001604051908101604052809291908181526020018280546103c790611869565b80156104145780601f106103e957610100808354040283529160200191610414565b820191906000526020600020905b8154815290600101906020018083116103f757829003601f168201915b5050505050905090565b600061043261042b610b69565b8484610bd8565b5060015b92915050565b60075490565b662386f26fc1000090565b600061045a848484610c8c565b6104ca84610466610b69565b6104c5856040518060600160405280602881526020016118d6602891396001600160a01b038a166000908152600360205260408120906104a4610b69565b6001600160a01b031681526020810191909152604001600020549190610e51565b610bd8565b5060019392505050565b60006006548211156104f85760405162461bcd60e51b815260040161031090611551565b6000610502610e7d565b905061050e8382610ea0565b9150505b919050565b600a5460ff1690565b600061043261052d610b69565b846104c5856003600061053e610b69565b6001600160a01b03908116825260208083019390935260409182016000908120918c168152925290205490610bcc565b6000662386f26fc100008311156105975760405162461bcd60e51b81526004016103109061165a565b816105b55760006105a784610b6d565b509294506104369350505050565b60006105c084610b6d565b509194506104369350505050565b6001600160a01b03811660009081526004602052604081205460ff161561060e57506001600160a01b038116600090815260026020526040902054610512565b6001600160a01b038216600090815260016020526040902054610436906104d4565b610638610b69565b6001600160a01b03166106496106b9565b6001600160a01b03161461066f5760405162461bcd60e51b815260040161031090611691565b600080546040516001600160a01b03909116907f8be0079c531659141344cd1fd0a4f28419497f9722a3daafe3b4186f6b6457e0908390a3600080546001600160a01b0319169055565b6000546001600160a01b031690565b60606009805461039b90611869565b60006104326106e4610b69565b846104c5856040518060600160405280602581526020016118fe602591396003600061070e610b69565b6001600160a01b03908116825260208083019390935260409182016000908120918d16815292529020549190610e51565b600061043261074c610b69565b8484610c8c565b6001600160a01b031660009081526004602052604090205460ff1690565b6001600160a01b03918216600090815260036020908152604080832093909416825291909152205490565b6107a4610b69565b6001600160a01b03166107b56106b9565b6001600160a01b0316146107db5760405162461bcd60e51b815260040161031090611691565b6001600160a01b03811660009081526004602052604090205460ff16156108145760405162461bcd60e51b815260040161031090611623565b6001600160a01b0381166000908152600160205260409020541561086e576001600160a01b038116600090815260016020526040902054610854906104d4565b6001600160a01b0382166000908152600260205260409020555b6001600160a01b03166000818152600460205260408120805460ff191660019081179091556005805491820181559091527f036b6384b5eca791c62761152d0c79bb0604c104a5fb6f4eb0703f3154bb3db00180546001600160a01b0319169091179055565b6108dc610b69565b6001600160a01b03166108ed6106b9565b6001600160a01b0316146109135760405162461bcd60e51b815260040161031090611691565b6001600160a01b0381166109395760405162461bcd60e51b81526004016103109061159b565b600080546040516001600160a01b03808516939216917f8be0079c531659141344cd1fd0a4f28419497f9722a3daafe3b4186f6b6457e091a3600080546001600160a01b0319166001600160a01b0392909216919091179055565b61099c610b69565b6001600160a01b03166109ad6106b9565b6001600160a01b0316146109d35760405162461bcd60e51b815260040161031090611691565b6001600160a01b03811660009081526004602052604090205460ff16610a0b5760405162461bcd60e51b815260040161031090611623565b60005b600554811015610b6557816001600160a01b031660058281548110610a4357634e487b7160e01b600052603260045260246000fd5b6000918252602090912001546001600160a01b03161415610b535760058054610a6e90600190611852565b81548110610a8c57634e487b7160e01b600052603260045260246000fd5b600091825260209091200154600580546001600160a01b039092169183908110610ac657634e487b7160e01b600052603260045260246000fd5b600091825260208083209190910180546001600160a01b0319166001600160a01b039485161790559184168152600282526040808220829055600490925220805460ff191690556005805480610b2c57634e487b7160e01b600052603160045260246000fd5b600082815260209020810160001990810180546001600160a01b0319169055019055610b65565b80610b5d816118a4565b915050610a0e565b5050565b3390565b6000806000806000806000610b8188610eac565b915091506000610b8f610e7d565b90506000806000610ba18c8686610edf565b919e909d50909b509599509397509395505050505050565b6000610bc58284611852565b9392505050565b6000610bc582846117fb565b6001600160a01b038316610bfe5760405162461bcd60e51b815260040161031090611754565b6001600160a01b038216610c245760405162461bcd60e51b8152600401610310906115e1565b6001600160a01b0380841660008181526003602090815260408083209487168084529490915290819020849055517f8c5be1e5ebec7d5bd14f71427d1e84f3dd0314c0f7b2291e5b200ac8c7c3b92590610c7f9085906117e4565b60405180910390a3505050565b6001600160a01b038316610cb25760405162461bcd60e51b81526004016103109061170f565b6001600160a01b038216610cd85760405162461bcd60e51b81526004016103109061150e565b60008111610cf85760405162461bcd60e51b8152600401610310906116c6565b6001600160a01b03831660009081526004602052604090205460ff168015610d3957506001600160a01b03821660009081526004602052604090205460ff16155b15610d4e57610d49838383610f1b565b610e4c565b6001600160a01b03831660009081526004602052604090205460ff16158015610d8f57506001600160a01b03821660009081526004602052604090205460ff165b15610d9f57610d49838383611032565b6001600160a01b03831660009081526004602052604090205460ff16158015610de157506001600160a01b03821660009081526004602052604090205460ff16155b15610df157610d498383836110d8565b6001600160a01b03831660009081526004602052604090205460ff168015610e3157506001600160a01b03821660009081526004602052604090205460ff165b15610e4157610d49838383611119565b610e4c8383836110d8565b505050565b60008184841115610e755760405162461bcd60e51b815260040161031091906114bb565b505050900390565b6000806000610e8a611189565b9092509050610e998282610ea0565b9250505090565b6000610bc58284611813565b60008080610ec66064610ec086600261135a565b90610ea0565b90506000610ed48583610bb9565b935090915050915091565b6000808080610eee878661135a565b90506000610efc878761135a565b90506000610f0a8383610bb9565b929992985090965090945050505050565b6000806000806000610f2c86610b6d565b6001600160a01b038d1660009081526002602052604090205494995092975090955093509150610f5c9087610bb9565b6001600160a01b038916600090815260026020908152604080832093909355600190522054610f8b9086610bb9565b6001600160a01b03808a166000908152600160205260408082209390935590891681522054610fba9085610bcc565b6001600160a01b038816600090815260016020526040902055610fdd8382611366565b866001600160a01b0316886001600160a01b03167fddf252ad1be2c89b69c2b068fc378daa952ba7f163c4a11628f55a4df523b3ef8460405161102091906117e4565b60405180910390a35050505050505050565b600080600080600061104386610b6d565b6001600160a01b038d16600090815260016020526040902054949950929750909550935091506110739086610bb9565b6001600160a01b03808a16600090815260016020908152604080832094909455918a168152600290915220546110a99083610bcc565b6001600160a01b038816600090815260026020908152604080832093909355600190522054610fba9085610bcc565b60008060008060006110e986610b6d565b6001600160a01b038d1660009081526001602052604090205494995092975090955093509150610f8b9086610bb9565b600080600080600061112a86610b6d565b6001600160a01b038d166000908152600260205260409020549499509297509095509350915061115a9087610bb9565b6001600160a01b0389166000908152600260209081526040808320939093556001905220546110739086610bb9565b6006546000908190662386f26fc10000825b60055481101561131e578260016000600584815481106111cb57634e487b7160e01b600052603260045260246000fd5b60009182526020808320909101546001600160a01b031683528201929092526040019020541180611244575081600260006005848154811061121d57634e487b7160e01b600052603260045260246000fd5b60009182526020808320909101546001600160a01b03168352820192909252604001902054115b1561126057600654662386f26fc1000094509450505050611356565b6112b4600160006005848154811061128857634e487b7160e01b600052603260045260246000fd5b60009182526020808320909101546001600160a01b031683528201929092526040019020548490610bb9565b925061130a60026000600584815481106112de57634e487b7160e01b600052603260045260246000fd5b60009182526020808320909101546001600160a01b031683528201929092526040019020548390610bb9565b915080611316816118a4565b91505061119b565b5060065461133390662386f26fc10000610ea0565b82101561135057600654662386f26fc10000935093505050611356565b90925090505b9091565b6000610bc58284611833565b6006546113739083610bb9565b6006556007546113839082610bcc565b6007555050565b80356001600160a01b038116811461051257600080fd5b6000602082840312156113b2578081fd5b610bc58261138a565b600080604083850312156113cd578081fd5b6113d68361138a565b91506113e46020840161138a565b90509250929050565b600080600060608486031215611401578081fd5b61140a8461138a565b92506114186020850161138a565b9150604084013590509250925092565b6000806040838503121561143a578182fd5b6114438361138a565b946020939093013593505050565b600060208284031215611462578081fd5b5035919050565b6000806040838503121561147b578182fd5b8235915060208301358015158114611491578182fd5b809150509250929050565b6001600160a01b0391909116815260200190565b901515815260200190565b6000602080835283518082850152825b818110156114e7578581018301518582016040015282016114cb565b818111156114f85783604083870101525b50601f01601f1916929092016040019392505050565b60208082526023908201527f45524332303a207472616e7366657220746f20746865207a65726f206164647260408201526265737360e81b606082015260800190565b6020808252602a908201527f416d6f756e74206d757374206265206c657373207468616e20746f74616c207260408201526965666c656374696f6e7360b01b606082015260800190565b60208082526026908201527f4f776e61626c653a206e6577206f776e657220697320746865207a65726f206160408201526564647265737360d01b606082015260800190565b60208082526022908201527f45524332303a20617070726f766520746f20746865207a65726f206164647265604082015261737360f01b606082015260800190565b6020808252601b908201527f4163636f756e7420697320616c7265616479206578636c756465640000000000604082015260600190565b6020808252601f908201527f416d6f756e74206d757374206265206c657373207468616e20737570706c7900604082015260600190565b6020808252818101527f4f776e61626c653a2063616c6c6572206973206e6f7420746865206f776e6572604082015260600190565b60208082526029908201527f5472616e7366657220616d6f756e74206d7573742062652067726561746572206040820152687468616e207a65726f60b81b606082015260800190565b60208082526025908201527f45524332303a207472616e736665722066726f6d20746865207a65726f206164604082015264647265737360d81b606082015260800190565b60208082526024908201527f45524332303a20617070726f76652066726f6d20746865207a65726f206164646040820152637265737360e01b606082015260800190565b6020808252602c908201527f4578636c75646564206164647265737365732063616e6e6f742063616c6c207460408201526b3434b990333ab731ba34b7b760a11b606082015260800190565b90815260200190565b60ff91909116815260200190565b6000821982111561180e5761180e6118bf565b500190565b60008261182e57634e487b7160e01b81526012600452602481fd5b500490565b600081600019048311821515161561184d5761184d6118bf565b500290565b600082821015611864576118646118bf565b500390565b60028104600182168061187d57607f821691505b6020821081141561189e57634e487b7160e01b600052602260045260246000fd5b50919050565b60006000198214156118b8576118b86118bf565b5060010190565b634e487b7160e01b600052601160045260246000fdfe45524332303a207472616e7366657220616d6f756e74206578636565647320616c6c6f77616e636545524332303a2064656372656173656420616c6c6f77616e63652062656c6f77207a65726fa2646970667358221220866389f509599e868c205d933a6a9574c5a16fec17f7820fc87fce8cc538edd464736f6c63430008000033",
  "linkReferences": {},
  "deployedLinkReferences": {}
}